S0190000796B7463616E7361742D73746167696E672E737265631F
S11300000C94470E0C94720E0C94720E0C94720E97
S11300100C94720E0C94720E0C94720E0C94720E5C
S11300200C94720E0C94720E0C94720E0C94720E4C
S11300300C94720E0C94720E0C94720E0C94B521E6
S11300400C94720E0C94720E0C94C71C0C94F41441
S11300500C94720E0C94720E0C94720E0C94720E1C
S11300600C94720E0C94720E0C94720E0C94720E0C
S11300700C94720E0C94720E0C94720E0C94441523
S11300800C94720E0C94720E0C94720E6E616E00CF
S1130090696E660000407A10F35A00A0724E180987
S11300A00010A5D4E80000E87648170000E40B54DB
S11300B0020000CA9A3B000000E1F50500008096AA
S11300C09800000040420F000000A08601000000DC
S11300D0102700000000E803000000006400000096
S11300E000000A00000000000100000000002C765F
S11300F0D888DC674F0823DFC1DFAE59E1B1B7967A
S1130100E5E3E453C63AE651997696E8E6C28426D6
S1130110EB898C9B62ED407C6FFCEFBC9C9F40F2B2
S1130120BAA56FA5F490055A2AF75C936B6CF9672E
S11301306DC11BFCE0E40D47FEF520E6B500D0EDF3
S1130140902E0300943577050080841E080000205B
S11301504E0A000000C80C333333330F986E1283F9
S11301601141EF8D2114893BE65516CFFEE6DB18CD
S1130170D1844B381BF77C1D901DA4BBE424203292
S113018084725E228100C9F124ECA1E53D276364F9
S1130190696E6F70737578585B00737069643A2088
S11301A06F7065726174696F6E2074696D656F75C7
S11301B0740D0A00737069643A206F70657261741B
S11301C0696F6E2074696D656F75740D0A007370C4
S11301D069643A206F7065726174696F6E20746926
S11301E06D656F75740D0A00737069643A206F70E1
S11301F065726174696F6E2074696D656F75740DD5
S11302000A00737069643A206F7065726174696F73
S11302106E2074696D656F75740D0A00737069647E
S11302203A206F7065726174696F6E2074696D65D0
S11302306F75740D0A000D0A726F6F744063616EFE
S11302407361743A3C2000636C693A20436F6D6DAE
S1130250616E64206E6F7420666F756E640D0A00A3
S11302600D0A726F6F744063616E7361743A3C205F
S1130270000D0A000D0A726F6F744063616E736142
S1130280743A3C2000636C693A20456E74657220B0
S11302906120636F6D6D616E640D0A00636C693A71
S11302A0204D697368616E646C6564206172677562
S11302B06D656E740D0A00636C693A20737563632F
S11302C06573730D0A00636C693A20272D63272038
S11302D07370656369666965642C20657865637508
S11302E074696E67204320737562726F7574696EEA
S11302F0650D0A00636C693A2073756363657373F3
S11303000D0A00636C693A20272D622720737065FB
S11303106369666965642C20657865637574696EC4
S113032067204220737562726F7574696E650D0A79
S113033000636C693A204572726F723A206E6F20C6
S1130340617267756D656E742076616C7565207376
S113035070656369666965640D0A00636C693A20B7
S1130360737563636573730D0A00636C693A205691
S113037061726961626C6520412068617320626505
S1130380656E2073657420746F2025640D0A006304
S11303906C693A2050617273656420617267756D8F
S11303A0656E743A2025640D0A00636C693A205224
S11303B06563656976656420617267756D656E74E1
S11303C03A2025730D0A00636C693A20272D6127B2
S11303D0207370656369666965642C206368616E67
S11303E067696E67207661726961626C6520410D90
S11303F00A00636C693A20556E6B6E6F776E2061EC
S11304007267756D656E743A2025730D0A00636C0E
S1130410693A204D697368616E646C656420617229
S113042067756D656E740D0A00636C693A204469E2
S11304307361626C696E67206465627567206F75AD
S1130440747075740D0A00636C693A20456E6162BC
S11304506C696E6720766572626F7365206F757460
S11304607075740D0A00636C693A204572726F727C
S11304703A206E6F20617267756D656E74207661C7
S11304806C7565207370656369666965640D0A003F
S1130490636C693A20556E6B6E6F776E206172677C
S11304A0756D656E742076616C75652C2073686F4C
S11304B0756C642062652065697468657220276FB5
S11304C06E27206F7220276F6666270D0A00636C03
S11304D0693A2044697361626C696E67206465627D
S11304E07567206F75747075740D0A00636C693AD2
S11304F020456E61626C696E672064656275672071
S11305006F75747075740D0A00636C693A20556ECA
S11305106B6E6F776E20617267756D656E743A20CD
S113052025730D0A005265626F6F7420636F6D6DE1
S1130530616E640D0A000C00202046617446533A33
S11305402050657469742046617446532076657240
S113055073696F6E2052302E30320D0A002020480D
S1130560414C3A2043616E53617448414C20766596
S11305707273696F6E202573206275696C7420250F
S1130580730D0A0020204B65726E656C3A2043613E
S11305906E5361744B65726E656C20766572736917
S11305A06F6E202573206275696C742025730D0AA3
S11305B000536F6674776172653A0D0A002020500B
S11305C065726970686572616C733A204750494F6F
S11305D02C20312078205350492C2032207820556B
S11305E04152542C20312078205457492C20386310
S11305F0204144432C204A5441472C20454D490D69
S11306000A002020466C6173683A2036344B207807
S11306102031362028313238204B42290D0A00205F
S113062020454550524F4D3A20314B2078203332EB
S1130630202834204B42290D0A0020205352414DDA
S11306403A20344B20782038202834204B42290D7E
S11306500A0020204672657175656E63793A20251B
S113066064204D487A0D0A0020204D43553A20411C
S113067056522041546D6567613132382C206465CF
S113068076696365207369676E61747572653A2073
S113069030783145393730320D0A00446576696364
S11306A06520696E666F726D6174696F6E3A0D0ACA
S11306B0002020737973696E666F202D206469733E
S11306C0706C6179732073797374656D20696E66DB
S11306D06F726D6174696F6E2E0D0A002020646163
S11306E0746574696D65202D20646973706C61791B
S11306F07320475053206461746520616E642074D4
S1130700696D652028555443292E0D0A0020207256
S113071065626F6F74202D207265626F6F74732031
S1130720746865206465766963652E0D0A0020206F
S1130730636C656172202D20636C65617273207334
S1130740637265656E2E0D0A002020636F6E666904
S113075067205B2D61203C6E3E5D205B2D625D2039
S11307605B2D635D202D20636F6E66696775726112
S113077074696F6E20746F6F6C2E2052756E202713
S1130780636F6E666967202D682720666F72206D1F
S11307906F72652064657461696C732E0D0A004183
S11307A07661696C61626C6520636F6D6D616E6406
S11307B0733A0D0A000D0A726F6F744063616E73B1
S11307C061743A3C20002B2D2D2D2D2D2D2D2D2DFA
S11307D02D2D2D2D2D2D2D2D2D2D2D2D2D2D2D2D45
S11307E02D2D2D2D2D2D2D2D2D2D2D2D2D2D2D2D35
S11307F02D2D2D2D2D2D2D2D2D2D2D2D2D2D2D2D25
S11308002D2D2D2D2D2D2D2D2B0D0A007C2020522C
S1130810756E2027636F6E6669672720746F206387
S113082068616E67652074686520646576696365D0
S113083027732073657474696E67732E20202020DB
S113084020202020202020202020202020207C0D5B
S11308500A007C202052756E202768656C70272062
S1130860746F2073656520746865206C69737420E7
S11308706F6620617661696C61626C6520636F6D7F
S11308806D616E64732E20202020202020202020E3
S1130890202020207C0D0A007C20202020202020E5
S11308A02020202020202020202020202020202044
S11308B043616E536174207368656C6C2076302ECE
S11308C0302E3120202020202020202020202020F5
S11308D0202020202020202020207C0D0A002B2DE9
S11308E02D2D2D2D2D2D2D2D2D2D2D2D2D2D2D2D34
S11308F02D2D2D2D2D2D2D2D2D2D2D2D2D2D2D2D24
S11309002D2D2D2D2D2D2D2D2D2D2D2D2D2D2D2D13
S11309102D2D2D2D2D2D2D2D2D2D2D2D2D2D2D2D03
S11309202B0D0A000C00496E697469616C697A695F
S11309306E67207368656C6C2E2E2E0D0A0D0A00EE
S11309400C002020202020202020202020202020D7
S113095020202020202020202020204D4D4D2E20FE
S113096020200D0A002020202020202020202020CC
S113097020202020202020202020202020204D4D19
S11309804D4D4D3F202020202020202020202020BD
S11309902020202020202020202020202020202053
S11309A020200D0A0020202020202020202020208C
S11309B02020202020202020202020202E4D4D44A7
S11309C020204D4D4D20202020202020202020209C
S11309D02020202020202020202020202020202013
S11309E020200D0A0020202020202020202020204C
S11309F020202020202020202020202E4D4D4D205E
S1130A002020204D4D202020202020202020202088
S1130A1020202020202020202020202020202020D2
S1130A2020200D0A0020202020202E2020202020FD
S1130A302020202020202020202020204D4D4D202B
S1130A4020202020204D4D20202020202020202048
S1130A502020202020202020202020202020202092
S1130A6020200D0A00202020204D4D4D4D20202017
S1130A7020202020202020202020204F4D4D2020E9
S1130A8020202020202E4D4D2020202020202020FA
S1130A902020202020202020202020202020202052
S1130AA02020200D0A0020202E4D20202E4D4D37D1
S1130AB02020202020202020202020204D4D4D20AB
S1130AC04D4D4D4D2020204D4D2020202020202014
S1130AD02020202020202020202020202020202012
S1130AE0202020200D0A0020204D3F202020204ED1
S1130AF04D4D20202020202020202020204D4D4D11
S1130B004D4D4D4D4D4D2020204D4D202020202079
S1130B1020202020202020202020202020202020D1
S1130B20202020202020200D0A0020204D4D2020B0
S1130B30202020202E4D4D4E20202020202020201B
S1130B4020202E2E202E202B4D4D2C2020384D4D94
S1130B50202E4D4D4D4D4D4D4D4D2E20202020200D
S1130B602020202020202020200D0A0020204D2E8F
S1130B702020204D4D4D2020204D4D202020202090
S1130B802020202020202020204D4D4D4D4D202080
S1130B904D4D4D4D4D4D4D4D4D7E4D4D4D4D4D4D50
S1130BA02020202020202020202020200D0A00208A
S1130BB04D4D2020204D4D244D4D2020204D4D4E97
S1130BC02020202020204D4D4D4D4D4D4D4D4D4D5F
S1130BD02E202020202020202020204D2E202020C8
S1130BE02E4D4D4D4D20202020202020202020203F
S1130BF00D0A00204D4D204D4D4E20202E4D4D20F0
S1130C002020204D4D204D4D4D4D4D4D4D4D7E20C0
S1130C102E20202020202020202020202020204D95
S1130C202E20202020202E4D4D4D4D2020202020F0
S1130C3020202020200D0A00204D4D4D4D20202045
S1130C402020204D4D4E20202E4D4D4D4D4D202029
S1130C502020202020202020202020202020202090
S1130C60202020202020202020202020202E4D4D18
S1130C704D4420202020202020202020200D0A0068
S1130C802E202020202020202020204D4D4D4D4D71
S1130C904D4D2E20202020202020202020202020E8
S1130CA020202020202020204D4D4D2020202020B9
S1130CB0202020202020204D4D4D204D4D4D4D4DC8
S1130CC04D2E202020200D0A00202020202020202E
S1130CD020204D4D4D4D202020202020202020205C
S1130CE02020202020202020202020202020202000
S1130CF02020202020202020202020202020204DC3
S1130D004D4D4D4D2C2E204D4D4D20202020200D9D
S1130D100A00202020202020204D4D4D4D2E202043
S1130D2020202020202020202020202020202020BF
S1130D3020202020202020204D4D20202020202055
S1130D4020202020202020204D4D4D202020202018
S1130D5020204D2020202020200D0A0020202020AB
S1130D60203D4D4D4D2E20202020202020202020CD
S1130D70202020202020202020202020202020206F
S1130D8020204D4D2E2020202020202020202020F7
S1130D9020204D4D4D2020202020204D4D2020206E
S1130DA02020200D0A00202020204D4D4D4D2020D4
S1130DB0202020202020202020202020202020202F
S1130DC0202020202020202020202020202020201F
S1130DD02020202020202020202020204D4D4D2E7A
S1130DE0202020204D4D20202020202020200D0ACE
S1130DF00020202020204D4D4D2020202020202088
S1130E0020202020202020204D2E202020202020A3
S1130E102020202020202020202020204D4D4D2047
S1130E2020202020202020204D4D4D2E20202E4DEE
S1130E304D4D4D2020202020200D0A002020204D43
S1130E404D4D202020202020202020202020202044
S1130E504D4D4D4D4D2E4D4D2E2020202020202037
S1130E602020202020202C4D2C2020202020202039
S1130E702E4D4D4D2E20202020202020204D4D2071
S1130E80202020200D0A002E4D4D2020202020203F
S1130E90202020202020204D4D4D4D204D4D4D4DE6
S1130EA04D4D2020202020202020202020202020E4
S1130EB0202020202020202E4D4D4D4D4D2020203F
S1130EC02020202020444D4D2020202020200D0AC9
S1130ED000204D4D4D2020202020202020202020A7
S1130EE0202E4D20202020204E20204D4D2020203B
S1130EF02020202020202020202020202020202EE0
S1130F002E4D4D4D4D4D2E20202020204D4D4D4D2C
S1130F102020202020202020200D0A00204D4D4D8F
S1130F2020202020202020202020202020204D4D63
S1130F3020202020204D4D20202020202020202053
S1130F40204D4D4D4D4D4D4D4D4D4D4D4D4D4D4DFA
S1130F5020202020204D4D4D4D4D202020202020AC
S1130F602020200D0A002E4D4D202020202020205E
S1130F70202020202020202020204D4D20204D4DB9
S1130F802020202020202020202020202C4D4D4DCA
S1130F904D4D4D4D4D4D4D4D2020202020202020E5
S1130FA0204D4D4D4D202020202020200D0A003FB3
S1130FB04D4D2020202020202020202020202020D3
S1130FC0202020204D20204D4D2020202020202096
S1130FD02E2020202020204D4D4D20202020202078
S1130FE07E4D4D2E202020202020204D4D4D4D2083
S1130FF02020202020200D0A00204D4D4D202020AF
S11310002020202020202020202020202020202BD1
S11310104D204D4D4D2020202020204D4D202020BE
S1131020202E4D4D20202020202E4D4D4D4D4D4D38
S11310302E2020202020202E4D4D4D2E20202020FB
S1131040200D0A00204D4D4D20202020202020205E
S1131050202020202020202020202E4D20204D4DF7
S11310602020202020204D4D4D4D4D4D2E202E2E44
S1131070204D4D4D4D4D4D4D204D4D4D2E2020209C
S1131080202020204D4D4D2E20202020200D0A0010
S1131090204D4D2B202020202020202020202020E7
S11310A0202020202020204D4D204D4D4D2020205B
S11310B0202E4D4D20374D4D4D4D4D4D4D4D4D4DEB
S11310C04D2020202020204D4D4D2E20202020205A
S11310D020204D4D2020202020200D0A00204D4DA1
S11310E020202020202020202020202020202020FC
S11310F020202020204D20204D4D4E2020202E4DFC
S11311004D4D202020202020202020202020202081
S113111020202020204D4D4D4D2020202020202017
S11311204D4D2E202020200D0A00204D4D2E202034
S113113020202020202020202020202020202020AB
S113114020204D4D20204D4D2E20202E4D4D4D2044
S1131150202020202020202020202020202020208B
S11311602020202E4D4D4D2E2020202020204D4D7E
S1131170202020200D0A00204D4D7E2020202020FC
S11311802020202020202020202020202020204D2E
S11311904D2E204D4D4D2020204D4D4D2E202020F4
S11311A0202020202020202020202020202020203B
S11311B020204D4D4D202020202020494D4D202021
S11311C0200D0A00204D4D4D2020202020202020DD
S11311D0202020202020202020202020204D4D20B1
S11311E0204D4D2020202E4D4D4D2020202020200C
S11311F020202020202020202020202020202020EB
S11312004D4D4D4D20202020204D4D2020200D0AF5
S113121000204D4D4D202020202020202020202063
S1131220202020202020202020204D4D2E204D4DF8
S11312304D2020204D4D4D202020202020202020F6
S11312402020202020202020202020202020204D6D
S11312504D4D2020204D4D4F2020200D0A002020F0
S11312604D4D4D20202020202020202020202020F3
S113127020202020202020204D4D4D202E4D4D2E6D
S11312802020204D4D4D20202020202020202020D3
S11312902020202020202020202020202020204D1D
S11312A04D4D4D4D20202020200D0A00204D4D4D48
S11312B0202020202020202020202020202020202A
S11312C020202020202E4D4D20204D4D2E2020204A
S11312D04D4D4D7E2020202020202020200D0A006E
S11312E0204D4D4D20202020202020202020202073
S11312F0202020202020202020204D4D2020202090
S1131300202020202E4D4D4D202020202020202044
S1131310200D0A0020204D4D4D202020202020208B
S113132020202020202020202020202020202020B9
S11313302020202020202020202E4D4D4D20202014
S113134020202020200D0A0020204D4D4D2020205B
S11313502020202020202020202020202020202089
S113136020202020202020202020202020204D4D1F
S11313704D4D20202020202020200D0A0020202058
S11313804D4D4D20202020202020202020202020D2
S11313902020202020202020202020202020202049
S11313A0202020444D4D4D20202020202020200DA1
S11313B00A002020202E4D4D4D20202020202020CA
S11313C02020202020202020202020202020202019
S11313D02020202020202020204D4D4D4D20202055
S11313E02020200D0A00202020204D4D4D2E2020AD
S11313F020202020202020202020202020202020E9
S1131400202020202020202020202020204D4D4D51
S11314104D2020202020200D0A0020202020204DB7
S11314204D4D20202020202020202020202020205E
S113143020202E7E4D4D4D4D4D4D4D2E20202020F3
S113144020204D4D4D2E20202020200D0A0020204C
S11314502020202E4D4D4D20202020202020204DC6
S11314604D4D4D4D4D4D4D4D4D4D2E2020202020A8
S11314702020202020204D4D4D4D20202020200DC7
S11314800A002020202020202E4D4D4D4D4D4D4D45
S11314904D4D4D4D4D4D4D4D202020202020204DB3
S11314A04D4D4D4D4D4D4D4D2E20204D4D4D20203B
S11314B02020200D0A00202020202020204D4D4DEA
S11314C04D4D4D4D4D2E2E2020202020202020201B
S11314D0204D4D4D4D4D2E20202020204D20204DBF
S11314E04D4D20202020200D0A00202020202020E7
S11314F02020384D4D2E202020204D4D4D4D4D4D5A
S11315004D4D3D20204D4D4D4D4D4D4D4D2E2020EA
S11315102E4D202C4D4D3720202020202020200D22
S11315200A002020202020202020204D4D4D202066
S113153020204D4D4D3A20204D4D2020204D4D4D25
S11315404D4D4D4D4D4D20204D4D4D204D4D4D207B
S1131550202020202020200D0A00202020202020D0
S113156020202020204D4D4D4D4D4D4D4D4D4D4D88
S11315704D20202020204D4D4D4D4D4D4D4D4D20A5
S1131580204D4D4D204D4D4D202020202020200D5C
S11315900A0020202020202020202020204D4D4DF6
S11315A04D4D4D4D4D2E4D4D4D4D4D4D2E20204DFF
S11315B04D4D4D4D4D4D4D204D4D4D20204D4D4DDE
S11315C020202020200D0A00202020202020202060
S11315D02020202E4D4D4D4D4D4D4D2E2020204D83
S11315E04D2E4D2E2020203D4D4D4D4D4D4D4D4DFC
S11315F02E2020204D4D4D20202020200D0A00209B
S1131600202020202020202020204D4D4D4D4D4DC8
S11316104D4D4D202E4D4D202020202020202020D7
S1131620202020202020202020204D4D4D2020202F
S113163020200D0A002020202020202020202020EF
S11316404D4D4D4D4D4D4D4D4D204D4D20202020A7
S11316502020202020202020202020202020204D59
S11316604D4D4D20202020200D0A00202020202038
S1131670202020202020202E4D4D4D4D4D4D4D4DF0
S1131680374D4D20202020202020202020202020E5
S113169020202020204D4D4D4D4D2020200D0A00AE
S11316A02020202020202020202020202020204D09
S11316B04D4D4D4D4D4D4D202020202020202020EB
S11316C02020202020202020203F4D4D4D4D2E2035
S11316D0200D0A002020202020202020202020204F
S11316E02020202020202020204D4D4D4D4D202015
S11316F02020202020202020202020204D4D4D4D32
S11317004D2E20200D0A00202020202020202020E3
S113171020202020202020202020202020202020C5
S11317204D4D4D4D4D4D2020202020202020204D7A
S11317304D4D4D2020200D0A002020202020202067
S11317402020202020202020202020202020202095
S1131750202020202E4D4D4D4D4D4D4D4D4D4D4D88
S11317604D4D4D2020200D0A002020202020202037
S11317702020202020202020202020202020202065
S11317802020202020202020204D4D4D4D4D4D3D2A
S11317900D0A0078313A2025662C2079313A20252B
S11317A0662C7A313A2025660D0A0074313A2025D8
S11317B0662C20703A2025660D0A0074656D7065EC
S11317C07261747572653A2025730D0A00636C6941
S11317D03A205265676973746572656420636F6D3E
S11317E06D616E642025732C2068616E646C657273
S11317F020617420307825580D0A0023181C181510
S1131800180D1805185B464154414C5D005B455268
S1131810524F525D005B5741524E5D005B494E464C
S11318204F5D000020202020202020202020202088
S11318302020202020205B444F4E455D0D0A005B94
S1131840494E49545D6B65726E656C3A2053746100
S11318507274696E67207461736B206D616E616769
S113186065720020202020202020202020202020FD
S113187020202020202020202020205B444F4E4583
S11318805D0D0A005B494E49545D6B65726E656C73
S11318903A205374617274696E67206B65726E6569
S11318A06C005B494E49545D6B65726E656C3A2001
S11318B05374617274696E672074696D6572002D6A
S11318C02D2D2D2D2D2D2D2D2D2D2D2D2D2D2D2D44
S11318D02D2D2D2D2D2D2D2D2D2D2D2D2D2D2D2D34
S11318E02D2D2D2D2D2D2D2D2D2D2D2D2D2D2D2D24
S11318F02D2D2D2D2D2D2D0D0A0D0A005B494E4940
S1131900545D6B65726E656C3A20546F74616C2023
S11319105461736B204D616E61676572206D656DF6
S11319206F72792075736167653A20256420627946
S11319307465730D0A005B494E49545D6B65726EA4
S1131940656C3A205461736B207175657565206D03
S1131950656D6F72792075736167653A2020202068
S1131960202020202025642062797465730D0A00EC
S11319705B494E49545D6B65726E656C3A204C4F01
S1131980575052494F207175657565206D656D6FAF
S113199072792075736167653A2020202020202504
S11319A0642062797465730D0A005B494E49545D85
S11319B06B65726E656C3A204E4F524D5052494FD2
S11319C0207175657565206D656D6F72792075730D
S11319D06167653A2020202020256420627974659F
S11319E0730D0A005B494E49545D6B65726E656CFC
S11319F03A20484947485052494F207175657565EA
S1131A00206D656D6F72792075736167653A20206A
S1131A1020202025642062797465730D0A005B49D7
S1131A204E49545D6B65726E656C3A205461736BFC
S1131A302071756575652073697A653A20202020C8
S1131A402020202020202020202020202025640D5C
S1131A500A005B494E49545D6B65726E656C3A20B1
S1131A604C4F575052494F20717565756520736905
S1131A707A653A20202020202020202020202020A9
S1131A802025640D0A005B494E49545D6B65726EF6
S1131A90656C3A204E4F524D5052494F2071756536
S1131AA075652073697A653A202020202020202043
S1131AB0202020202025640D0A005B494E49545DF6
S1131AC06B65726E656C3A20484947485052494FDD
S1131AD02071756575652073697A653A2020202028
S1131AE020202020202020202025640D0A000D0A1B
S1131AF02D2D2D2D2D2D2D2D2D2D2D2D2D2D2D2D12
S1131B002D2D2D2D2D2D4D656D6F727920757361E1
S1131B1067652D2D2D2D2D2D2D2D2D2D2D2D2D2D7F
S1131B202D2D2D2D2D2D2D2D0D0A00202020202092
S1131B30202020202020202020202020205B444F13
S1131B404E455D0D0A005B494E49545D6B65726EEE
S1131B50656C3A2053657474696E672075702074DF
S1131B6061736B207175657565002020202020202D
S1131B70202020205B444F4E455D0D0A005B494EFA
S1131B8049545D6B65726E656C3A20536574746973
S1131B906E67207570205052494F524954595F4C1A
S1131BA04F57207175657565002020202020202066
S1131BB020205B444F4E455D0D0A005B494E49545D
S1131BC05D6B65726E656C3A2053657474696E67FB
S1131BD0207570205052494F524954595F4E4F520C
S1131BE04D2071756575650020202020202020205F
S1131BF0205B444F4E455D0D0A005B494E49545DE0
S1131C006B65726E656C3A2053657474696E6720F7
S1131C107570205052494F524954595F48494748BA
S1131C20207175657565000D0A5B494E49545D6BFD
S1131C3065726E656C3A205374617274696E6720C4
S1131C4075702043616E536174206B65726E656CB0
S1131C50207625730D0A0D0A002020202020202044
S1131C602020202020202020202020202020202070
S1131C7020205B444F4E455D0D0A0068756D3A2087
S1131C8025662C2074323A2025660D0A00001124A2
S1131C901FBECFEFD0E1DEBFCDBF84B780939F04DA
S1131CA014BE0FB6F894A89581B5886181BD11BCA6
S1131CB00FBE11E0A0E0B1E0EEE3F1E600E00BBFFF
S1131CC002C007900D92A83AB107D9F724E0A8EA18
S1131CD0B1E001C01D92AF39B207E1F70E94AA2317
S1131CE00C949D300C940000139A93B123B1892F66
S1131CF090E08095909588709927822783B983B165
S1131D0093B18870892783B98FE39CE90197F1F730
S1131D1000C0000093B123B1892F90E08095909585
S1131D2088709927822783B90895CF9320E043E0F0
S1131D3060E081E00E947D1483B193B188708927AB
S1131D4083B920E040E861E080E00E941514C82FC8
S1131D5021E040E868E08DE20E94C01321E040E801
S1131D6063E081E30E94C01393B123B1892F90E013
S1131D708095909588709927822783B90E94EA14E8
S1131D808C2FCF9108951F93CF93DF9320E043E0EE
S1131D9060E081E00E947D1483B193B1887089274B
S1131DA083B920E040E861E082E30E941514182F13
S1131DB020E040E861E083E30E941514C82FD0E0DE
S1131DC093B183B1292F30E02095309528703327C3
S1131DD0282723B90E94EA147C2F6627612B072E3B
S1131DE0000C880B990B0E94E92420E030E040E0CD
S1131DF05DE30E949E2520E030E040E251E40E9431
S1131E009E250E94B124CB01DF91CF911F910895AB
S1131E101F93CF93DF9320E043E060E081E00E94D2
S1131E207D1483B193B18870892783B920E040E899
S1131E3061E084E30E941514182F20E040E861E07B
S1131E4085E30E941514C82FD0E093B183B1292FE4
S1131E5030E02095309528703327282723B90E9435
S1131E60EA147C2F6627612B072E000C880B990B34
S1131E700E94E92420E030E040E05DE30E949E25DA
S1131E8020E030E040E251E40E949E250E94B1240B
S1131E90CB01DF91CF911F9108951F93CF93DF93CF
S1131EA020E043E060E081E00E947D1483B193B1BF
S1131EB08870892783B920E040E861E086E30E94C6
S1131EC01514182F20E040E861E087E30E94151400
S1131ED0C82FD0E093B183B1292F30E020953095FD
S1131EE028703327282723B90E94EA147C2F6627F9
S1131EF0612B072E000C880B990B0E94E92420E02B
S1131F0030E040E05DE30E949E2520E030E040E2C6
S1131F1051E40E949E250E94B124CB01DF91CF9110
S1131F201F910895CF92DF92EF92FF92CF93C82F23
S1131F3020E043E060E081E00E947D14C0981C989A
S1131F408C2F80680E948F1480E00E94BC14C82EDD
S1131F50D12CE12CF12CFE2CED2CDC2CCC2480E0BB
S1131F600E94BC14C82AFE2CED2CDC2CCC2480E06E
S1131F700E94BC14C82A1C9AC09A0E94EA14C70181
S1131F80B601CF91FF90EF90DF90CF9008954F92DC
S1131F905F926F927F928F929F92AF92BF92CF92F5
S1131FA0DF92EF92FF928AEF0E94920F24E09595C0
S1131FB08795779567952A95D1F70E94E9244B0177
S1131FC05C01609180047091810480E090E00E9443
S1131FD0E7242B013C0120E030E040E057E3C50159
S1131FE0B4010E949E256B017C0120E030E040E0BA
S1131FF059E3C301B2010E949E259B01AC01C701B4
S1132000B6010E94CD236B017C0120E030E040E862
S113201058E3C501B4010E949E254B015C0120E0F8
S113202030E040E85AE3C301B2010E949E259B01BF
S1132030AC01C501B4010E94CD234B015C01609148
S1132040860470918704072E000C880B990B0E945C
S1132050E9249B01AC01C501B4010E949E254B01FA
S11320605C016091960470919704072E000C880B14
S1132070990B0E94E9242B013C01A7019601C70199
S1132080B6010E949E259B01AC01C301B2010E94CE
S11320909E259B01AC01C501B4010E94CE236B01B6
S11320A07C010E94B1246093820470938304809322
S11320B084049093850420E030E040EA55E4C701AD
S11320C0B6010E943F24FF90EF90DF90CF90BF9025
S11320D0AF909F908F907F906F905F904F900895F6
S11320E04F925F926F927F928F929F92AF92BF9224
S11320F0CF92DF92EF92FF92CF93DF9300D000D084
S1132100CDB7DEB787EF0E94920F4B015C0160915F
S113211082047091830480918404909185040E94C8
S1132120E92420E030E040E05FE30E949E2520E0C7
S113213030E04AE757E40E94CD236B017C016091B3
S1132140980470919904072E000C880B990B0E9437
S1132150E9242B013C01A7019601C701B6010E94A5
S11321609E259B01AC01C301B2010E949E2520E083
S113217030E040E058E30E949E252B013C01609131
S11321808C0470918D04072E000C880B990B0E940F
S1132190E924A70196010E949E2520E030E040E05A
S11321A05FE30E949E25A30192010E94CE2320E0BA
S11321B030E040E85EE30E949E2569837A838B8346
S11321C09C836091900470919104072E000C880BFD
S11321D0990B0E94E924A70196010E949E25A7015C
S11321E096010E949E2520E030E040E056E30E94E4
S11321F09E252B013C016091880470918904072E6F
S1132200000C880B990B0E94E924A70196010E94F7
S11322109E259B01AC01C301B2010E94CE2320E0A4
S113222030E040E056E30E949E2520E030E040E0AC
S113223058E30E949E2520E030E040E85FE30E94DE
S1132240CE236B017C01C501B40124E095958795EB
S1132250779567952A95D1F70E94E9249B01AC01F3
S113226060E070E080E899E40E94CD234B015C01BA
S113227060918A0470918B04072E000C880B990BD3
S11322800E94E92420E030E040E857E40E949E25C3
S113229029813A814B815C810E94CE2320E030E089
S11322A040E859E30E949E259B01AC01C501B4019D
S11322B00E94CD2320E030E543EC55E40E949E25A6
S11322C04B015C0160918E0470918F0480E090E07A
S11322D00E94E724A70196010E949E259B01AC0160
S11322E0C501B4010E943F246B017C0160919404F8
S11322F070919504072E000C880B990B0E94E92419
S1132300A70196010E949E25A70196010E949E2581
S113231020E030E040E050E30E949E254B015C0148
S11323206091920470919304072E000C880B990B12
S11323300E94E924A70196010E949E2520E030E036
S113234040E058E30E949E259B01AC01C501B40105
S11323500E94CE234B015C0160917E0470917F0446
S1132360072E000C880B990B0E94E9249B01AC01F9
S1132370C501B4010E94CE2320E030E040E85DE3D3
S11323800E949E259B01AC01C701B6010E94CE2389
S11323900F900F900F900F90DF91CF91FF90EF90DF
S11323A0DF90CF90BF90AF909F908F907F906F9071
S11323B05F904F9008952FE78AE196E02150804086
S11323C09040E1F700C0000010929A040895AF9283
S11323D0BF92CF92DF92EF92FF920F931F93CF930E
S11323E0DF9300D000D01F92CDB7DEB7FE01319647
S11323F025E0DF011D922A95E9F710929A04AD9821
S1132400A59AA3EDB0E31197F1F700C00000AD9ACF
S1132410A5982FE19D9B06C000C02150D9F724E068
S113242020939A0420919A04211112C023E39D99C8
S113243006C000C02150D9F724E020939A0423E376
S11324409D9B06C000C02150D9F724E020939A0434
S113245020919A0421113BC030E0C12CD12C76018B
S1132460C39444E0A42E27E044E29D9907C000C031
S11324704150D9F7A0929A042FEF35E040919A0485
S113248041111FC0BBE0BA95F1F700C09D9B11C07C
S11324908F01030F111DD801BC90B701A601022EB4
S11324A004C0440F551F661F771F0A94D2F74B29A7
S11324B04C9343E39D9B05C000C04150D9F7A092C3
S11324C09A04215027FFD0CF3F5F353060F220912E
S11324D09A04211116C039812A81230F3B81230FCD
S11324E03C81230F3D81231721F083E080939A04DC
S11324F008C0DC01CE01059621912D93E817F90758
S1132500D9F780919A040F900F900F900F900F902D
S1132510DF91CF911F910F91FF90EF90DF90CF90BB
S1132520BF90AF9008958F929F92AF92BF92CF9237
S1132530DF92EF92FF920F931F93CF93DF9300D01C
S113254000D0CDB7DEB78C015B0119821A821B82E1
S11325501C82CE0101960E94E711811149C06B8152
S113256070E080E090E00E94E724F80160837183CA
S113257082839383698170E080E090E00E94E72485
S11325806B017C01F5016083718382839383F8017D
S113259080809180A280B38020E030E0A901C50151
S11325A0B4010E943A2487FD0AC020E030E048E4E8
S11325B052E4C501B4010E949925181614F482E06E
S11325C015C020E030E040EA51E4C701B6010E94A2
S11325D03A2487FD0AC020E030E044EB52E4C7010E
S11325E0B6010E94992518161CF481E080939A0480
S11325F080919A040F900F900F900F90DF91CF91DC
S11326001F910F91FF90EF90DF90CF90BF90AF900C
S11326109F908F900895BC0180E090E00C949312F9
S1132620F894C798BF9A8FEB93E00197F1F700C035
S11326300000BF9890EA9A95F1F786B3E3E3F3E0DC
S11326403197F1F700C00000789480780895F894E9
S1132650C798BF9A90E19A95F1F78111BF9880EAE3
S11326608A95F1F7BF9878940895F894C798BF9A1B
S113267080E18A95F1F7BF989AE19A95F1F700C045
S113268086B392E99A95F1F700C07894881F882759
S1132690881F0895CF93DF93D8E0C0E00E943513DC
S11326A020E8829FC0011124C695C82BD150B1F7F0
S11326B08C2FDF91CF910895CF93DF93D82FC8E06B
S11326C08D2F81700E942713D695C150C9F7DF91D1
S11326D0CF9108950E9410138CEC0E945C1384E443
S11326E00C945C13CF93DF930E9410138CEC0E9424
S11326F05C138EEB0E945C130E944A13D82F0E9435
S11327004A13C82F0E9410134D2F42954F70DF704B
S113271081E792E0D89F9001D99F300D11243F9317
S11327202F93C77020E1C29FC0011124842B282F4E
S1132730082E000C330B3F938F9386E091E09F9318
S11327408F938AEA91E09F938F930E944A2C8DB7CE
S11327509EB708960FB6F8949EBF0FBE8DBF8AEA47
S113276091E0DF91CF91089581E08093BA010895BB
S113277087B3876087BB88B38F6088BB1EB8089512
S11327800F931F93CF93DF93D82F162FC42F022FAD
S11327904AEF50E060E070E084EB93E10E947C2219
S11327A01092BA01C098002329F08C2F8095C82F6D
S11327B0CD2301C0CD2BCFB9779904C08091BA0144
S11327C08823D1F34AEF50E060E070E084EB93E1BA
S11327D00E947C228091BA01882319F08CE192E056
S11327E011C01FB9779904C08091BA018823D1F32D
S11327F084EB93E10E94E2228091BA01882379F06C
S113280082E092E09F938F9383E08F9381E08F9394
S11328100E94B01D0F900F900F900F9001C0C09AAE
S1132820DF91CF911F910F9108950F931F93CF9331
S1132830DF93D82F162FC42F022F4AEF50E060E009
S113284070E084EB93E10E947C221092BA01C0985C
S1132850002329F08C2F8095C82FCD2301C0CD2BC8
S1132860CFB9779904C08091BA018823D1F3C0917C
S1132870BA01CC2381F088EE91E09F938F9383E09B
S11328808F9381E08F930E94B01D0F900F900F9053
S11328900F90C0E02CC0111117C084EB93E10E948B
S11328A0E2228091BA01882301F18EEC91E09F939A
S11328B08F9383E08F9381E08F930E94B01D0F90DC
S11328C00F900F900F9013C04AEF50E060E070E05B
S11328D084EB93E10E947C228FEF8FB97799DDCF4F
S11328E08091BA018823D1F3D8CFC09ACFB18C2F6D
S11328F0DF91CF911F910F91089594E0499FA0011A
S113290011248065482B80E2689FB0011124642B58
S11329106DB9222311F0709A089570980895CF9399
S1132920C82F4AEF50E060E070E084EB93E10E942E
S11329307C221092BA01CFB9779904C08091BA0170
S11329408823D1F38091BA01882389F084EB91E044
S11329509F938F9383E08F9381E08F930E94B01DA8
S11329601FB80F900F900F900F90CF91089584EBA4
S113297093E1CF910C94E222CF93C82F4AEF50E019
S113298060E070E084EB93E10E947C221092BA0133
S1132990CFB9779904C08091BA018823D1F384EB2D
S11329A093E10E94E2228091BA01882381F08AE9AE
S11329B091E09F938F9383E08F9381E08F930E94A4
S11329C0B01D0F900F900F900F9080E001C08FB159
S11329D0CF9108951DB870980895109240021092F6
S11329E03F021092410208951F920F920FB60F9268
S11329F011240BB60F922F933F934F935F936F93D2
S1132A007F938F939F93AF93BF93EF93FF938091A3
S1132A103F029091400201969093400280933F02BE
S1132A20E0913F02F0914002EF5BFD4F80818823EB
S1132A3049F0E0913F02F0914002EF5BFD4F80814D
S1132A408CB908C0559880913E028E7F80933E02D7
S1132A500E94ED14FF91EF91BF91AF919F918F91DF
S1132A607F916F915F914F913F912F910F900BBE8A
S1132A700F900FBE0F901F9018951092BC011092EA
S1132A80BB011092BD0108951F920F920FB60F92D1
S1132A9011240BB60F922F933F934F935F936F9331
S1132AA07F938F939F93AF93BF93EF93FF93809103
S1132AB0BB019091BC0101969093BC018093BB0132
S1132AC0E091BB01F091BC01E354FE4F8081882367
S1132AD051F0E091BB01F091BC01E354FE4F8081C1
S1132AE080939C000CC080919A008F7D80939A0003
S1132AF080913D028E7F80933D020E943D15FF919F
S1132B00EF91BF91AF919F918F917F916F915F9161
S1132B104F913F912F910F900BBE0F900FBE0F90CE
S1132B201F9018950895CF9389E697E19F938F930B
S1132B301F92C1E0CF930E94B01D89E397E19F9358
S1132B408F931F92CF930E94B01D87E097E19F93CC
S1132B508F931F92CF930E94B01D84ED96E19F93B3
S1132B608F931F92CF930E94B01D80EA96E19F93AA
S1132B708F931F92CF930E94B01D8BE696E19F9393
S1132B808F931F92CF930E94B01D85E396E19F938C
S1132B908F931F92CF930E94B01D8FEF95E19F9367
S1132BA08F931F92CF930E94B01D8DB79EB78096CE
S1132BB00FB6F8949EBF0FBE8DBF88EC95E19F932E
S1132BC08F931F92CF930E94B01D82E995E19F934A
S1132BD08F931F92CF930E94B01D8AE595E19F9336
S1132BE08F931F92CF930E94B01D82E295E19F9331
S1132BF08F931F92CF930E94B01D8AEE94E19F930E
S1132C008F931F92CF930E94B01D86EB94E19F9304
S1132C108F931F92CF930E94B01D82E894E19F93FB
S1132C208F931F92CF930E94B01D8EE494E19F93E3
S1132C308F931F92CF930E94B01D8DB79EB780963D
S1132C400FB6F8949EBF0FBE8DBF8AE194E19F93A7
S1132C508F931F92CF930E94B01D86EE93E19F93B2
S1132C608F931F92CF930E94B01D82EB93E19F93A9
S1132C708F931F92CF930E94B01D8DE793E19F9392
S1132C808F931F92CF930E94B01D88E493E19F938A
S1132C908F931F92CF930E94B01D84E193E19F9381
S1132CA08F931F92CF930E94B01D80EE92E19F9369
S1132CB08F931F92CF930E94B01D8CEA92E19F9351
S1132CC08F931F92CF930E94B01D8DB79EB78096AD
S1132CD00FB6F8949EBF0FBE8DBF8EE592E19F9311
S1132CE08F931F92CF930E94B01D81E192E19F9335
S1132CF08F931F92CF930E94B01D84EC91E19F9318
S1132D008F931F92CF930E94B01D87E791E19F9309
S1132D108F931F92CF930E94B01D8AE291E19F93FB
S1132D208F931F92CF930E94B01D8DED90E19F93DE
S1132D308F931F92CF930E94B01D80E990E19F93DF
S1132D408F931F92CF930E94B01D84E490E19F93D0
S1132D508F931F92CF930E94B01D8DB79EB780961C
S1132D600FB6F8949EBF0FBE8DBF89EF9FE09F936F
S1132D708F931F92CF930E94B01D8FEA9FE09F9381
S1132D808F931F92CF930E94B01D86E69FE09F937E
S1132D908F931F92CF930E94B01D8CE19FE09F936D
S1132DA08F931F92CF930E94B01D81ED9EE09F935D
S1132DB08F931F92CF930E94B01D87E89EE09F934C
S1132DC08F931F92CF930E94B01D8CE39EE09F933C
S1132DD08F931F92CF930E94B01D81EF9DE09F932C
S1132DE08F931F92CF930E94B01D8DB79EB780968C
S1132DF00FB6F8949EBF0FBE8DBF86EA9DE09F93E9
S1132E008F931F92CF930E94B01D8CE59DE09F93FA
S1132E108F931F92CF930E94B01D82E19DE09F93F8
S1132E208F931F92CF930E94B01D89EC9CE09F93D7
S1132E308F931F92CF930E94B01D80E89CE09F93D4
S1132E408F931F92CF930E94B01D88E39CE09F93C1
S1132E508F931F92CF930E94B01D83EF9BE09F93AB
S1132E608F931F92CF930E94B01D8FEA9BE09F9394
S1132E708F931F92CF930E94B01D8DB79EB78096FB
S1132E800FB6F8949EBF0FBE8DBF8CE69BE09F9358
S1132E908F931F92CF930E94B01D8AE29BE09F9371
S1132EA08F931F92CF930E94B01D87EE9AE09F9359
S1132EB08F931F92CF930E94B01D86EA9AE09F934E
S1132EC08F931F92CF930E94B01D85E69AE09F9343
S1132ED08F931F92CF930E94B01D85E29AE09F9337
S1132EE08F931F92CF930E94B01D85EE99E09F931C
S1132EF08F931F92CF930E94B01D85EA99E09F9310
S1132F008F931F92CF930E94B01D8DB79EB780966A
S1132F100FB6F8949EBF0FBE8DBF85E699E09F93D0
S1132F208F931F92CF930E94B01D82E499E09F93E8
S1132F308F931F92CF930E94B01D8DB79EB70896B2
S1132F400FB6F8949EBF0FBE8DBFCF910895CF9357
S1132F508FE997E09F938F931F92C1E0CF930E94D4
S1132F60B01D89E497E09F938F931F92CF930E94A3
S1132F70B01D8EE297E09F938F931F92CF930E9490
S1132F80B01D8DE097E09F938F931F92CF930E9483
S1132F90B01D8CED96E09F938F931F92CF930E9468
S1132FA0B01D81EB96E09F938F931F92CF930E9465
S1132FB0B01D8DB79EB748960FB6F8949EBF0FBE4E
S1132FC08DBFCF910895EF92FF920F931F93CF93EC
S1132FD08BE996E09F938F931F92C1E0CF930E9459
S1132FE0B01D88E696E09F938F931F92CF930E9423
S1132FF0B01D1F921F921F9288E08F9382E596E086
S11330009F938F931F92CF930E94B01D8AE396E003
S11330109F938F931F92CF930E94B01D8FE196E0F0
S11330209F938F931F92CF930E94B01D82E096E0EE
S11330309F938F931F92CF930E94B01D8DEB95E0C9
S11330409F938F931F92CF930E94B01D8DB79EB70D
S113305080960FB6F8949EBF0FBE8DBF81EB95E0AE
S11330609F938F931F92CF930E94B01D8EE0E82E02
S113307081E0F82EFF92EF9207E211E01F930F9385
S113308084E895E09F938F931F92CF930E94B01D85
S1133090FF92EF921F930F938DE595E09F938F938B
S11330A01F92CF930E94B01DFF92EF921F930F9334
S11330B088E395E09F938F931F92CF930E94B01D56
S11330C08DB79EB74C960FB6F8949EBF0FBE8DBFBA
S11330D0CF911F910F91FF90EF90089586E395E0B3
S11330E09F938F931F9281E08F930E94B01D0F9046
S11330F00F900F900F90089585E295E09F938F9322
S11331001F9281E08F930E94B01D0F900F900F903B
S11331100F9008950E946A132FEF89E698E12150D9
S113312080409040E1F700C000000E9472139F931A
S11331308F938BEB97E19F938F931F9281E08F93F3
S11331400E94B01D0F900F900F900F900F900F9052
S113315008950F931F93CF93DF930E94C70FEB0142
S1133160182F092F0E9470109F938F937F936F9352
S11331700F931F93DF93CF938BEA97E19F938F93E2
S11331801F9281E08F930E94B01D8DB79EB70C965D
S11331900FB6F8949EBF0FBE8DBFDF91CF911F91E4
S11331A00F9108950F931F93CF93DF930E94C30E43
S11331B0EC010E94080F8C010E944D0FBC01990F75
S11331C0880B990B0E94E9249F938F937F936F93AD
S11331D0B801110F880B990B0E94E9249F938F93D8
S11331E07F936F93BE01DD0F880B990B0E94E92436
S11331F09F938F937F936F9383E997E19F938F932B
S11332001F9281E08F930E94B01D8DB79EB74096A8
S11332100FB6F8949EBF0FBE8DBFDF91CF911F9163
S11332200F91089580E090E0FC01E353FC4F10827D
S1133230019680349105C1F71092CC030C94451E7D
S1133240AF92BF92CF92DF92EF92FF920F931F93B0
S1133250CF93DF9366E371E08DEC93E00E94C82B7B
S11332605C01892BF1F40E94121985E892E09F9386
S11332708F931F92C1E0CF930E94B01D84E792E028
S11332809F938F931F92CF930E94B01D8DB79EB7CB
S113329008960FB6F8949EBF0FBE8DBFC0E0D0E075
S11332A05FC081E792E09F938F931F9281E08F9399
S11332B00E94B01DE090C102F12C82ECC82E82E085
S11332C0D82E0F900F900F900F9000E010E00E1585
S11332D01F054CF5B501C6010E94CC2BEC0193E10E
S11332E0C90ED11C2097E1F483E1809FF001819FF6
S11332F0F00D1124EE53FD4F0088F189E02D09955E
S11333000E94121980E692E09F938F931F9281E0AE
S11333108F930E94B01D0F900F900F900F9020C0BC
S11333200F5F1F4FD4CF0E94121987E492E09F933E
S11333308F931F92C1E0CF930E94B01D86E392E069
S11333409F938F931F92CF930E94B01D8DB79EB70A
S113335008960FB6F8949EBF0FBE8DBFC5E1D0E0AE
S1133360CE01DF91CF911F910F91FF90EF90DF90ED
S1133370CF90BF90AF900895DF92EF92FF920F939A
S11333801F93CF93DF932091C1022F3088F5E72E4E
S1133390D62E8C017F936F931F938F938DEC97E1BF
S11333A09F938F931F9281E08F930E94B01DF090A2
S11333B0C10283E1F89EE0011124CE53DD4FD88A87
S11333C0E98AB801CE010E94D52BF80101900020B2
S11333D0E9F73197E01BF10BEA8BF394F092C10209
S11333E08DB79EB708960FB6F8949EBF0FBE8DBFDB
S11333F0DF91CF911F910F91FF90EF90DF9008958F
S1133400DC01FB0120E030E050E0BA0161507109B9
S11334102417350764F4819111969C91119798179C
S113342039F02617370719F02F5F3F4FF1CF80E0AF
S113343008952F923F924F925F926F927F928F9254
S11334409F92BF92CF92DF92EF92FF920F931F93BE
S1133450CF93DF93CDB7DEB729970FB6F894DEBFCD
S11334600FBECDBF8091420190914301A0914401D0
S11334708E839F83A8876E0126E0C20ED11CF601BD
S113348001900020E9F731978E2F8C1989870DEC74
S113349013E0FE0131967F01BB24B3948EEC282EF9
S11334A084E0382E9CEE492E94E0592E29E2622EB7
S11334B024E0722E3EE0832E34E0932E012B09F497
S11334C094C066E371E080E090E00E94C82B8C0118
S11334D0FC0180818D3291F74985B601C8010E94B3
S11334E0001A8436B9F0863709F456C0811172C0C7
S11334F01F930F9389E095E09F938F931F9281E030
S11335008F930E94B01D0F900F900F900F900F900B
S11335100F906BC066E371E080E090E00E94C82BDE
S11335208C01FF92EF9288E391E09F938F931F9316
S11335300F930E94792C0F900F900F900F900F9083
S11335400F90892B21F16BE371E0C7010E94CC2B12
S1133550892B41F45F924F921F92BF920E94B01D3B
S113356061E00EC06EE371E0C7010E94CC2B892B91
S113357059F43F922F921F92BF920E94B01D60E0B7
S11335808FE00E94891E2CC080E994E002C086E688
S113359094E09F938F9320C06BE371E0C7010E9476
S11335A0CC2B892B61F487E494E09F938F931F9233
S11335B0BF920E94B01D0F900F900F900F906EE37A
S11335C071E0C7010E94CC2B892B09F077CF7F9241
S11335D06F9202C09F928F921F92BF920E94B01D61
S11335E00F900F900F900F9069CF29960FB6F89413
S11335F0DEBF0FBECDBFDF91CF911F910F91FF9022
S1133600EF90DF90CF90BF909F908F907F906F90BE
S11336105F904F903F902F9008952F923F924F923A
S11336205F926F927F928F929F92AF92BF92CF924E
S1133630DF92EF92FF920F931F93CF93DF93CDB757
S1133640DEB728970FB6F894DEBF0FBECDBF87E074
S1133650E8E4F1E09E012F5F3F4F7901D901019029
S11336600D928A95E1F7F90101900020E9F731976D
S11336702E2E221A0DEC13E06E0138E0C30ED11C7D
S11336808CE9482E82E0582E93E0692E93E0792E3F
S113369026ECA22E22E0B22E37EB832E32E0932EBC
S11336A0012B09F4ABC066E371E080E090E00E9476
S11336B0C82B8C01FC0180818D3291F7422DB7011A
S11336C0C8010E94001A1886813631F1A0F48111D4
S11336D089C01F930F9382EF93E09F938F931F9260
S11336E082E08F930E94B01D0F900F900F900F9067
S11336F00F900F9083C0823609F45EC0833609F0C0
S113370071C0BF92AF921F92332433943F920E94B0
S1133710B01D9F928F925CC027EC33E03F932F93B0
S11337201F92332433943F920E94B01D66E371E0EC
S113373080E090E00E94C82B8C01DF92CF92E5E4F8
S1133740F1E0FF93EF931F938F930E94792C0FB6B0
S1133750F894DEBF0FBECDBF019739F51F930F93C9
S11337602AEA33E03F932F931F923F920E94B01DA9
S113377088851F928F93EFE8F3E0FF93EF931F92F6
S11337803F920E94B01D88851F928F938AE693E032
S11337909F938F931F923F920E94B01D2BE533E0BD
S11337A03F932F931F923F9215C021E333E03F9341
S11337B02F931F923F921BC07F926F921F923324CC
S11337C033943F920E94B01DE4EFF2E0FF93EF9335
S11337D01F923F920E94B01D0FB6F894DEBF0FBE39
S11337E0CDBF5ECF5F924F921F9281E08F930E9474
S11337F0B01D0F900F900F900F9052CF28960FB6D8
S1133800F894DEBF0FBECDBFDF91CF911F910F9112
S1133810FF90EF90DF90CF90BF90AF909F908F90EC
S11338207F906F905F904F903F902F900895CF932B
S1133830A8952FEF84E39CE0215080409040E1F76D
S113384000C0000080E499E09F938F931F92C1E031
S1133850CF930E94B01D86E299E09F938F931F92AD
S1133860CF930E94B01D6DE07BE18FE491E00E9454
S1133870BC1969E17AE186E591E00E94BC196CE724
S113388078E18CE591E00E94BC1962E975E183E678
S113389091E00E94BC196EE678E18CE691E00E940A
S11338A0BC1963EE77E182E791E00E94BC1967EAF4
S11338B077E18AE791E00E94BC1963E975E18FE73B
S11338C091E00E94BC1962ED78E188E891E00E94E1
S11338D0BC1969EA78E180E991E00E94BC196AE8C0
S11338E078E187E991E00E94BC197894A8952FEFBC
S11338F084E39CE0215080409040E1F700C0000048
S113390084E299E09F938F931F92CF930E94B01DFE
S11339108EED98E09F938F931F92CF930E94B01DDA
S113392088E998E09F938F931F92CF930E94B01DD4
S113393082E598E09F938F931F92CF930E94B01DCE
S11339408CE098E09F938F931F92CF930E94B01DB9
S113395086EC97E09F938F931F92CF930E94B01DA4
S11339608DB79EB780960FB6F8949EBF0FBE8DBFDD
S113397085EB97E09F938F931F92CF930E94B01D86
S11339800F900F900F900F90CF910C94451E1F92A3
S11339900F920FB60F9211240BB60F922F933F93F1
S11339A04F935F936F937F938F939F93AF93BF9343
S11339B0EF93FF938CB1EDECF3E001900020E9F775
S11339C03197ED5CF340E034F105B8F48F3711F032
S11339D0883041F49091CC03992379F09091CC03F1
S11339E0915009C0E091CC03F0E0E353FC4F808395
S11339F09091CC039F5F9093CC038D3021F08A305B
S1133A0011F08B3369F4E091CC03F0E0E453FC4F04
S1133A1010820E94471E62E080E299E10E94C81E63
S1133A20FF91EF91BF91AF919F918F917F916F9192
S1133A305F914F913F912F910F900BBE0F900FBE4E
S1133A400F901F901895DF92EF92FF920F931F93A0
S1133A50CF93DF93EC01D62E8A017901662341F0DE
S1133A6080E00E94B21E811103C0CE010E943C1E60
S1133A70ED2DF0E0EE0FFF1FE550F84E65917491C7
S1133A80CE010E94B62BCE010E943C1EA701B801B4
S1133A90CE010E949B2CCE01DF91CF911F910F91FB
S1133AA0FF90EF90DF900C943C1EDF92EF92FF9218
S1133AB00F931F93CF93DF93EC01D62E8A017901E4
S1133AC0662341F080E00E94B21E811103C0CE0142
S1133AD00E943C1EED2DF0E0EE0FFF1FE550F84E66
S1133AE065917491CE010E94B62BCE010E943C1EBA
S1133AF0A701B801CE010E94C42CCE01DF91CF9161
S1133B001F910F91FF90EF90DF900C943C1E0F9348
S1133B101F93CF93DF93EB01E82FF0E0EE0FFF1F2D
S1133B20E550F84E05911491C801F801249122231F
S1133B3039F00F5F1F4FFC0184910E94381EF4CFAF
S1133B40CE01FE012491222331F02196FC018491BF
S1133B500E94381EF5CFDF91CF911F910F910895E8
S1133B60EF92FF921F93CF93DF93CDB7DEB7888593
S1133B7019858130C9F040F0823041F56A857B8532
S1133B80812F0E94871D22C080E890E00E94BD29F9
S1133B907C010097D9F09E01245F3F4F4A855B85E5
S1133BA0612F0E94231D0FC080E890E00E94BD2970
S1133BB07C01009759F09E01245F3F4F4A855B8545
S1133BC0612F0E94551DC7010E94552ADF91CF9194
S1133BD01F91FF90EF9008951BBA1ABA18BA17BA3A
S1133BE015BA14BA12BA11BA13B812B81092620004
S1133BF010926100E4E6F0E0808188608083BC9AE2
S1133C009AB32AB3892F90E0809590958270992772
S1133C1082278ABB9BB32BB3892F90E08095909524
S1133C208270992782278BBBA49AA59AA69AA79AF1
S1133C3008959FB7F89423B7822B83BF12BE8DE7F4
S1133C4081BF78949FBF08959FB7F89487B7826027
S1133C5087BF78949FBF0895109290008CE089B933
S1133C6088E98AB986E08093950080E090E0089521
S1133C708CB95D9BFECF0895FC019191992321F0AD
S1133C809CB95D9BFECFF9CF0895579A0895579834
S1133C90089561E080E00E94891E0E94EC1D8CE082
S1133CA090E00E942C1EA8950E949C2178948FE19C
S1133CB09EE40197F1F700C00000C89B0EC061E0CC
S1133CC08FE00E94891E95B325B3892F90E08095DB
S1133CD0909580789927822704C085B395B380781E
S1133CE0892785BB08950000089528E0829FC001BC
S1133CF01124FC01E35FFB4F83E79EE19183808302
S1133D00138212821582148282E0868381E0878383
S1133D100895AFB7F894E0915D04F0915E0440918A
S1133D205D0450915E0421E030E0611102C020E0A6
S1133D3030E0319521953109B9016E277F2721E0C3
S1133D4030E002C0220F331F8A95E2F7CB018223B1
S1133D5093238427952790935E0480935D0478943D
S1133D60AFBF08959FB7F89440915D0450915E04ED
S1133D7078949FBF21E030E002C0220F331F8A9560
S1133D80E2F72423352381E0232B09F480E008950E
S1133D90AC012FB7F894633028F570E0FB01E156CD
S1133DA0FE4F30813323F1F0DB01AE5ABB4F9C91BF
S1133DB09317B0F4660F771FFB01EE55FE4F019089
S1133DC0F081E02D309771F0E90FF11DE90FF11D3D
S1133DD0518340839F5F9C9378942FBF80E0089524
S1133DE078942FBF81E008950F93CF93DF939FB70B
S1133DF0F8944115510511F441E050E0A0E0B0E021
S1133E00E0915104F0E0EA17FB07ECF0FD0133E028
S1133E10EE0FFF1F3A95E1F7E35FFB4FC081D181BD
S1133E20C617D70771F4415051095583448326833B
S1133E300783813019F4558344834CC0158214825E
S1133E4049C01196DDCF30915104343008F046C09A
S1133E50E091510438E0E39FF0011124E35FFB4F4C
S1133E6071836083E09151044150510938E0E39F2C
S1133E70F0011124E35FFB4F53834283E09151042B
S1133E8038E0E39FF0011124E35FFB4F2683E091C8
S1133E90510428E0E29FF0011124E35FFB4F078304
S1133EA0E0915104813049F438E0E39FF00111249A
S1133EB0E35FFB4F5583448308C088E0E89FF0012B
S1133EC01124E35FFB4F15821482809151048F5FAC
S1133ED08093510478949FBF80E003C078949FBF7F
S1133EE081E0DF91CF910F9108950F931F93CF93AA
S1133EF0DF934FB7F894833008F040C0282F30E0A8
S1133F00F901E156FE4F90819923C1F1F901EE0FB9
S1133F10FF1FEE55FE4F0190F081E02D309771F1B7
S1133F20D901AE5ABB4F8C91882301F181508C93F7
S1133F30DF0120E030E0892F90E0BC01615071097D
S1133F40ED012296261737075CF412960D911C9109
S1133F50139711961C930E932F5F3F4FDE01F0CF02
S1133F6081509048880F991FE80FF91F83E79EE15D
S1133F709183808378944FBF80E001C081E0DF911A
S1133F80CF911F910F910895CF93DF93C82FDFB77F
S1133F90F894809151048150809351048C2F0E9495
S1133FA0751EAC2FB0E0A330B105C4F4CD01019669
S1133FB023E0AA0FBB1F2A95E1F7A35FBB4FFC01C7
S1133FC033E0EE0FFF1F3A95E1F7E35FFB4F28E084
S1133FD001900D922A95E1F7DC01E5CF83E00E9480
S1133FE0751E7894DFBF80E0DF91CF910895CF9361
S1133FF0C82F8FE00E94B21E6FB7F894C33030F51B
S11340008C2F90E0FC01E156FE4F20812223F1F039
S1134010FC01EE0FFF1FEE55FE4F0190F081E02DE5
S11340203097A1F040E050E030E0A3E7BEE1421752
S1134030530734F4B183A08332964F5F5F4FF7CFB9
S1134040FC01EE5AFB4F108278946FBFCF91089514
S113405081E00E94B21E882331F00E94241E61E098
S113406082E00C94891E089583E00E94191E89E55C
S11340709CE19F938F931F9282E08F930E94B01DC7
S11340800F900F900F900F9061E081E00C94891EC7
S11340900E94491E61E080E00E94891E60E081E088
S11340A00E94891E60E082E00E94891E87E291E0FE
S11340B09F938F9387E29CE19F938F931F92D1E00C
S11340C0DF930E94B01DA8958AEF9BE19F938F9385
S11340D01F92C2E0CF930E94B01D80E00E94F71FA0
S11340E088EE9BE19F938F931F92CF930E94B01D04
S11340F08BEB9BE19F938F931F92CF930E94B01DF4
S113410081E00E94F71F89EA9BE19F938F931F929E
S1134110CF930E94B01D8DE79BE19F938F931F92D5
S1134120CF930E94B01D82E00E94F71F8AE69BE1B4
S11341309F938F931F92CF930E94B01D86E49BE1BF
S11341409F938F931F92CF930E94B01DA8958DB714
S11341509EB782960FB6F8949EBF0FBE8DBF8BE2BA
S11341609BE19F938F931F92CF930E94B01D8EEE7D
S11341709AE19F938F931F92CF930E94B01D1F9239
S113418088E08F938AEB9AE19F938F931F92DF933A
S11341900E94B01D1F921F9286E89AE19F938F930D
S11341A01F92DF930E94B01D1F928AE08F9382E5D5
S11341B09AE19F938F931F92DF930E94B01D1F92E9
S11341C084E08F938EE19AE19F938F931F92DF9304
S11341D00E94B01D8DB79EB780960FB6F8949EBF0F
S11341E00FBE8DBF1F9280E18F9384EE99E19F9360
S11341F08F931F92DF930E94B01D1F921F928AEA31
S113420099E19F938F931F92DF930E94B01D1F9299
S113421084E18F9380E799E19F938F931F92DF93BB
S11342200E94B01D1F9280E28F9386E399E19F93D1
S11342308F931F92DF930E94B01D1F9284E48F938B
S11342408CEF98E19F938F931F92DF930E94B01D90
S11342508FEB98E19F938F931F92CF930E94B01D91
S11342608DB79EB782960FB6F8949EBF0FBE8DBFD2
S113427082EA98E19F938F931F92CF930E94B01D7F
S1134280A8950E9434200E94282061E082E00E94C8
S1134290891E84E898E19F938F931F92CF930E9485
S11342A0B01D83E698E19F938F931F92CF930E9452
S11342B0B01D8FE398E19F938F931F92CF930E9439
S11342C0B01D84E298E19F938F931F92CF930E9435
S11342D0B01D0E94171C60E080E00E94891E8DB70B
S11342E09EB744960FB6F8949EBF0FBE8DBFC0E232
S11342F0A895809141049091420483579E4139F0DE
S1134300E0914104F0914204099580E00DC0809150
S11343102D0490912E0483579E4141F0E0912D0489
S1134320F0912E04099582E00E94751F000085B368
S11343308C2785BB7894DCCF20919F0423FF09C090
S113434080915D0490915E04886090935E048093F4
S11343505D0422FF09C080915D0490915E04846035
S113436090935E0480935D0408951F920F920FB69C
S11343700F9211240BB60F922F933F934F935F9399
S11343806F937F938F939F93AF93BF93CF93DF9359
S1134390EF93FF9380915D0490915E048860909305
S11343A05E0480935D04F894C0E0D0E09E0163E075
S11343B0220F331F6A95E1F7F901E35FFB4F808118
S11343C0918183579E4109F44EC082819381892B48
S11343D039F08781813021F482819381019741C032
S11343E0F901E35FFB4F87818130E9F58081918199
S11343F0892BC9F1568160817181852F90E05330FA
S113440028F4FC01E156FE4FE08101C0E0E0DC014C
S1134410AE5ABB4F4C914E17B8F4533040F4880F4A
S1134420991FFC01EE55FE4F9081818102C090E0FE
S113443080E0E92FF82FE40FF11DE40FF11D7183E3
S113444060838C918F5F8C93F901E35FFB4F8481D0
S11344509581892B21F48C2F0E94C41F04C0848170
S11344609581938382832196C430D10509F09ECF30
S113447020915504309156044091570450915804AA
S11344806091590470915A0480915B0490915C048A
S1134490A1E00E94B129209355043093560440931F
S11344A05704509358046093590470935A048093AA
S11344B05B0490935C040E943F23789480915D0494
S11344C090915E04877F90935E0480935D04FF91D6
S11344D0EF91DF91CF91BF91AF919F918F917F9198
S11344E06F915F914F913F912F910F900BBE0F9061
S11344F00FBE0F901F901895CF92DF92EF92FF920C
S1134500CF93DF93EC016A017B0182E00E94B21E2B
S1134510882309F44FC02FB7F89480E090E03AE084
S113452040915F0450E0481759079CF0389FF00110
S1134530399FF00D1124E05AFB4F408151814C17F3
S11345405D0729F4C282D382E482F58227C00196F2
S1134550E7CF80915F04833048F580915F048F5FDB
S113456080935F04E0915F048AE08E9FF001112440
S1134570E05AFB4FD183C083E0915F048E9FF0012A
S11345801124E05AFB4FC282D382E482F582E09187
S11345905F048E9FF0011124E05AFB4FC682D7823C
S11345A0E086F18678942FBF80E005C078942FBF11
S11345B083E001C082E0DF91CF91FF90EF90DF9024
S11345C0CF900895CF93DF93EC0182E00E94B21E56
S11345D08823B9F03FB7F89480915F0481508093A9
S11345E05F048091600490916104C817D90759F061
S11345F080916A0490916B04C817D907D1F581E0C2
S113460003C082E039C080E090E02AE0289FF001F6
S1134610299FF00D1124E05AFB4F1182108212825F
S1134620138214821582AC014F5F5F4F289FD00123
S1134630299FB00D1124A05ABB4F249FF001259F40
S1134640F00D1124E05AFB4F822F01900D928A95B0
S1134650E1F7CA014230510531F710927504109206
S113466074041092760410927704109278041092D5
S1134670790478943FBF80E0DF91CF9108951F9330
S1134680CF93DF93C0E0D0E01AE01C9FF0011D9FA0
S1134690F00D1124E05AFB4F80819181892B39F16F
S11346A082819381A481B581892B8A2B8B2B41F044
S11346B082819381A481B5810197A109B10913C0B5
S11346C080819181892B21F00190F081E02D099561
S11346D01C9FF0011D9FF00D1124E05AFB4F8681B1
S11346E09781A085B18582839383A483B583219622
S11346F0C330D10551F6DF91CF911F910895CF9327
S1134700DF9300D000D0CDB7DEB7CE0101960E9472
S11347100B131F921F921F921F928C818F938B8178
S11347208F938A818F9389818F938BE79CE19F93E9
S11347308F931F9281E08F930E94B01D0FB6F8945F
S1134740DEBF0FBECDBF0F900F900F900F90DF9183
S1134750CF9108950F9378949FE088E10FB6F89471
S1134760A89581BD0FBE91BD0E94EC1D0E94B81397
S11347700E94740E0E94950E0E94DB1101E020E05D
S113478048EE53E06FE773E281E00E94F41E0E945A
S1134790482080E090E00F9108955058BB27AA2745
S11347A00E94E5230C945F250E94512538F00E9455
S11347B0582520F039F49F3F19F426F40C944E2523
S11347C00EF4E095E7FB0C944825E92F0E94702530
S11347D058F3BA17620773078407950720F079F432
S11347E0A6F50C9492250EF4E0950B2EBA2FA02D6D
S11347F00B01B90190010C01CA01A0011124FF278A
S1134800591B99F0593F50F4503E68F11A16F04084
S1134810A22F232F342F4427585FF3CF4695379583
S11348202795A795F0405395C9F77EF41F16BA0B48
S1134830620B730B840BBAF09150A1F0FF0FBB1FF6
S1134840661F771F881FC2F70EC0BA0F621F731F3F
S1134850841F48F4879577956795B795F7959E3F9C
S113486008F0B0CF9395880F08F09927EE0F97952D
S1134870879508950E94242508F481E008950E94F4
S113488053240C945F250E94582558F00E9451250A
S113489040F029F45F3F29F00C94482551110C9401
S11348A093250C944E250E94702568F39923B1F347
S11348B0552391F3951B550BBB27AA276217730742
S11348C0840738F09F5F5F4F220F331F441FAA1FD6
S11348D0A9F335D00E2E3AF0E0E832D09150504092
S11348E0E695001CCAF72BD0FE2F29D0660F771F40
S11348F0881FBB1F261737074807AB07B0E809F026
S1134900BB0B802DBF01FF2793585F4F3AF09E3FAA
S1134910510578F00C9448250C9493255F3FE4F3FB
S1134920983ED4F3869577956795B795F7959F5FED
S1134930C9F7880F911D9695879597F90895E1E039
S1134940660F771F881FBB1F621773078407BA0798
S113495020F0621B730B840BBA0BEE1F88F7E095F3
S113496008950E94B8246894B1110C949325089575
S11349700E94782588F09F5798F0B92F9927B7514E
S1134980B0F0E1F0660F771F881F991F1AF0BA95EF
S1134990C9F714C0B13091F00E949225B1E0089596
S11349A00C949225672F782F8827B85F39F0B93F88
S11349B0CCF3869577956795B395D9F73EF49095A2
S11349C08095709561957F4F8F4F9F4F0895E89420
S11349D009C097FB3EF490958095709561957F4F43
S11349E08F4F9F4F9923A9F0F92F96E9BB279395F1
S11349F0F695879577956795B795F111F8CFFAF401
S1134A00BB0F11F460FF1BC06F5F7F4F8F4F9F4F31
S1134A1016C0882311F096E911C0772321F09EE88F
S1134A20872F762F05C0662371F096E8862F70E0F5
S1134A3060E02AF09A95660F771F881FDAF7880FCF
S1134A409695879597F90895990F0008550FAA0B25
S1134A50E0E8FEEF16161706E807F907C0F012168D
S1134A601306E407F50798F0621B730B840B950B90
S1134A7039F40A2661F0232B242B252B21F40895E5
S1134A800A2609F4A140A6958FEF811D811D089582
S1134A9097F99F6780E870E060E008959FEF80ECED
S1134AA0089500240A941616170618060906089590
S1134AB000240A9412161306140605060895092EF6
S1134AC00394000C11F4882352F0BB0F40F4BF2B65
S1134AD011F460FF04C06F5F7F4F8F4F9F4F0895A5
S1134AE057FD9058440F551F59F05F3F71F047959B
S1134AF0880F97FB991F61F09F3F79F08795089580
S1134B00121613061406551FF2CF4695F1DF08C09E
S1134B10161617061806991FF1CF869571056105BB
S1134B2008940895E894BB2766277727CB0197F963
S1134B3008950E94242508F48FEF08950E94B1255A
S1134B400C945F250E94512538F00E94582520F0CE
S1134B50952311F00C9448250C944E2511240C94A3
S1134B6093250E94702570F3959FC1F3950F50E033
S1134B70551F629FF001729FBB27F00DB11D639F0B
S1134B80AA27F00DB11DAA1F649F6627B00DA11DB1
S1134B90661F829F2227B00DA11D621F739FB00D57
S1134BA0A11D621F839FA00D611D221F749F3327C7
S1134BB0A00D611D231F849F600D211D822F762F60
S1134BC06A2F11249F5750409AF0F1F088234AF03D
S1134BD0EE0FFF1FBB1F661F771F881F91505040A9
S1134BE0A9F79E3F510580F00C9448250C94932519
S1134BF05F3FE4F3983ED4F3869577956795B79530
S1134C00F795E7959F5FC1F7FE2B880F911D969549
S1134C10879597F908952F923F924F925F926F92E2
S1134C207F928F929F92AF92BF92CF92DF92EF9238
S1134C30FF920F931F93CF93DF93CDB7DEB76097A7
S1134C400FB6F894DEBF0FBECDBF7C011B016A0115
S1134C50FC0117821682838181FF44C39E012F5F6A
S1134C603F4F3901F7019381F10193FD859193FF42
S1134C7081911F01882309F431C3853239F493FDEE
S1134C80859193FF81911F01853239F4B70190E03A
S1134C900E940E2C56016501E5CF10E0512C912C99
S1134CA0FFE1F915D8F08B3279F038F4803279F0DD
S1134CB08332A1F4F92DF0612EC08D3261F080337E
S1134CC069F4292D21602DC0392D3260932E892D50
S1134CD08460982E2AC0E92DE86015C097FC2DC089
S1134CE020ED280F2A3088F496FE06C03AE0139F80
S1134CF0200D1124122F19C08AE0589E200D112472
S1134D00522EE92DE0629E2E10C08E3231F496FCB4
S1134D10E5C2F92DF0649F2E08C08C3621F4292DAC
S1134D202068922E02C0883641F4F10193FD8591EA
S1134D3093FF81911F018111B3CF9BEB980F9330A7
S1134D4020F4992D9061805E07C09BE9980F933001
S1134D5008F066C1992D9F7E96FF16E09F73992EE9
S1134D60853619F49064992E08C0863621F4392FBB
S1134D703068932E02C01111115097FE07C01C33E6
S1134D8050F444244394410E27E00BC0183038F00B
S1134D9027E017E005C027E09CE3492E02C0212F3D
S1134DA0412C560184E0A80EB11CF601608171818A
S1134DB082819381042DA3010E94DE2A6C01F98172
S1134DC0FC87F0FF02C0F3FF06C091FC06C092FE10
S1134DD006C000E205C00DE203C00BE201C000E022
S1134DE08C858C7019F001115AC29BC297FE10C0B9
S1134DF04C0CFC85F4FF04C08A81813309F44A9485
S1134E00141474F528E0241578F588E0482E2CC095
S1134E1096FC2AC0812F90E08C159D059CF03CEFF8
S1134E20C3163FEFD30674F0892D8068982E0AC00C
S1134E30E2E0F0E0EC0FFD1FE10FF11D8081803313
S1134E4019F411501111F4CF97FE0EC04424439469
S1134E50410E812F90E0C816D9062CF41C1904C009
S1134E604424439401C010E097FE06C01C141D04A2
S1134E7034F4C601019605C085E090E002C081E0EB
S1134E8090E001110196112331F0212F30E02F5FC2
S1134E903F4F820F931F252D30E08217930714F4A0
S1134EA0581A01C0512C892D897049F4552039F0C4
S1134EB0B70180E290E00E940E2C5A94F7CF0023B1
S1134EC029F0B701802F90E00E940E2C93FC09C0BA
S1134ED0552039F0B70180E390E00E940E2C5A94DB
S1134EE0F7CF97FE4CC04601D7FE02C0812C912C0F
S1134EF0C60188199909F301E80FF91FFE87ED87A8
S1134F00960124193109388B2F87012F10E0119550
S1134F10019511093FEF8316930629F4B7018EE238
S1134F2090E00E940E2CC814D9044CF08F85988907
S1134F308815990524F4ED85FE85818101C080E3FF
S1134F40F1E08F1A91082D853E852F5F3F4F3E87F4
S1134F502D87801691062CF0B70190E00E940E2C4C
S1134F60D9CFC814D90441F49A81963320F49533E7
S1134F7019F43C8534FF81E3B70190E04EC08A8187
S1134F80813319F09C859F7E9C87B70190E00E9435
S1134F900E2C111105C094FC18C085E690E017C0D2
S1134FA0B7018EE290E00E940E2C1E5F82E001E0C9
S1134FB0080FF301E80FF11D8081B70190E00E9412
S1134FC00E2C802F0113F3CFE6CF85E490E0B701D8
S1134FD00E940E2CD7FC06C0C114D10441F4EC8508
S1134FE0E4FF05C0D194C194D1088DE201C08BE2E5
S1134FF0B70190E00E940E2C80E32AE0C216D1048F
S11350002CF08F5FFAE0CF1AD108F7CFB70190E008
S11350100E940E2CB701C601C0960E940E2C54C1EA
S1135020833631F0833779F0833509F056C020C0D8
S1135030560132E0A30EB11CF6018081898301E0A0
S113504010E0630112C05601F2E0AF0EB11CF6018C
S1135050C080D18096FE03C0612F70E002C06FEF64
S11350607FEFC6010E94DC2B8C01F92DFF7714C061
S1135070560122E0A20EB11CF601C080D18096FE3A
S113508003C0612F70E002C06FEF7FEFC6010E9482
S1135090BD2B8C01F92DF0689F2EF3FD1AC0852DD0
S11350A090E008171907A8F4B70180E290E00E9485
S11350B00E2C5A94F4CFF60197FC859197FE8191BA
S11350C06F01B70190E00E940E2C51105A940150C8
S11350D011090115110579F7F7C0843611F08936E5
S11350E061F5560197FE09C024E0A20EB11CF60139
S11350F060817181828193810AC0F2E0AF0EB11C9C
S1135100F60160817181072E000C880B990BF92D33
S1135110FF769F2E97FF09C09095809570956195B5
S11351207F4F8F4F9F4FF0689F2E2AE030E0A301FE
S11351300E94ED2CC82EC6183FC0092D853721F4D6
S11351400F7E2AE030E01DC0097F8F3691F018F4FD
S1135150883559F0C3C0803719F0883711F0BEC0C4
S1135160006104FF09C0046007C094FE08C0066023
S113517006C028E030E005C020E130E002C020E1B4
S113518032E0560107FF09C084E0A80EB11CF60105
S1135190608171818281938108C0F2E0AF0EB11CFD
S11351A0F6016081718180E090E0A3010E94ED2C02
S11351B0C82EC6180F77902E96FE0BC0092D0E7FB1
S11351C0C11650F494FE0AC092FC08C0092D0E7E4C
S11351D005C0DC2C092D03C0DC2C01C0D12E04FF3A
S11351E00DC0FE01EC0DF11D8081803311F4097EA8
S11351F009C002FF06C0D394D39404C0802F8678DC
S113520009F0D39403FD11C000FF06C01C2DD51472
S113521080F4150D1D190DC0D51458F4B70180E2A2
S113522090E00E940E2CD394F7CFD51410F45D189F
S113523001C0512C04FF10C0B70180E390E00E942C
S11352400E2C02FF17C001FD03C088E790E002C0E6
S113525088E590E0B7010CC0802F867859F001FFF3
S113526002C08BE201C080E207FD8DE2B70190E04D
S11352700E940E2CC11638F4B70180E390E00E941E
S11352800E2C1150F7CFCA94F301EC0DF11D80815F
S1135290B70190E00E940E2CC110F5CF15C0F4E0C8
S11352A0F51560F584E0581A93FE1FC0011127C05C
S11352B02C8523FF2AC00CE810E0392D3071932E81
S11352C0F8018491811124C0552009F4E4CCB7017C
S11352D080E290E00E940E2C5A94F6CFF70186816A
S11352E0978126C08FEF9FEF23C0B70180E290E043
S11352F00E940E2C5A945110F8CFD8CF512CB701DC
S1135300802F90E00E940E2CD3CF00E910E0D5CF7F
S113531091108052B70190E00E940E2C0F5F1F4F36
S1135320CFCF23E0251510F483E0BDCF512CC0CF9F
S113533060960FB6F894DEBF0FBECDBFDF91CF915C
S11353401F910F91FF90EF90DF90CF90BF90AF909F
S11353509F908F907F906F905F904F903F902F9091
S113536008950024A7FD00942A0F301D401D501DF0
S1135370601D701D801D901D08950F931F93CF9382
S1135380DF938230910510F482E090E0E0919D0477
S1135390F0919E0420E030E0A0E0B0E0309719F1F5
S11353A0408151810281138148175907C8F084173D
S11353B0950769F4109731F012960C93129713968F
S11353C01C9327C000939D0410939E0422C02115B2
S11353D0310519F04217530718F49A01BD01EF0182
S11353E0DF01F801DBCF21153105F9F0281B390B5A
S11353F02430310580F48A819B816115710521F087
S1135400FB019383828304C090939E0480939D0444
S1135410FE01329644C0FE01E20FF31F8193919383
S113542022503109398328833AC020919B0430915A
S11354309C04232B41F42091020130910301309309
S11354409C0420939B0420910001309101012115BB
S1135450310541F42DB73EB7409104015091050147
S1135460241B350BE0919B04F0919C04E217F30795
S1135470A0F42E1B3F0B2817390778F0AC014E5FC0
S11354805F4F2417350748F04E0F5F1F50939C045D
S113549040939B048193919302C0E0E0F0E0CF013C
S11354A0DF91CF911F910F910895CF93DF930097D0
S11354B009F481C0FC01329713821282A0919D04E9
S11354C0B0919E04109781F420813181820F931F43
S11354D020919B0430919C042817390751F5F093CF
S11354E09C04E0939B0467C0ED0120E030E0CE17FC
S11354F0DF0740F44A815B819E0141155105F1F0BB
S1135500EA01F5CFD383C28340815181840F951F73
S1135510C817D90759F488819981840F951F029679
S1135520918380838A819B819383828321153105B2
S113553029F4F0939E04E0939D043DC0E901FB83AC
S1135540EA8349915991C40FD51FEC17FD0761F403
S113555080819181840F951F0296E9019983888344
S1135560828193819B838A83E0E0F0E012968D919F
S11355709C911397009719F0FD01DC01F7CF8D91F1
S11355809C9111979D012E5F3F4F820F931F209195
S11355909B0430919C042817390769F4309729F447
S11355A010929E0410929D0402C013821282B09342
S11355B09C04A0939B04DF91CF910895283008F0B8
S11355C027E03327DA01990F311D87FD916000969A
S11355D06105710539F432602E5F3D9330E32A95FD
S11355E0E1F708959F3F30F080387105610509F0B7
S11355F03C5F3C5F3D93913008F08068911DDF93E0
S1135600CF931F930F93FF92EF92192F987F969544
S1135610E92F96959695E90FFF27E251FF4F9927B9
S11356203327EE24FF24A701E7010590089407948B
S113563028F4360FE71EF81E491F511D660F771F09
S1135640881F991F0694A1F70590079428F4E70E84
S1135650F81E491F561FC11D770F881F991F661F0B
S11356600694A1F70590079428F4F80E491F561FD5
S1135670C71FD11D880F991F661F771F0694A1F7B6
S11356800590079420F4490F561FC71FD81F990F80
S1135690661F771F881F0694A9F7849110951770C9
S11356A041F0D695C79557954795F794E7941A9581
S11356B0C1F7E4E9F0E0689415901591359165918E
S11356C0959105907FE27395E118F10A430B560B0F
S11356D0C90BD009C0F7E10CF11E431F561FC91FA7
S11356E0D01D7EF4703311F48A95E6CFE89401500E
S11356F030F0080F0AF40027021708F4202F23952E
S1135700022F7A3328F079E37D932A95E9F710C0C4
S11357107D932A9589F606949795679537951795FD
S11357201794E118F10A430B560BC90BD00998F0F2
S113573023957E9173957A3308F070E37C9320135C
S1135740B8F77E9170617D9330F0839571E37D931A
S113575070E32A95E1F71124EF90FF900F911F91C8
S1135760CF91DF91992787FD90950895FB01DC0186
S113577005900D920020E1F70895FC010590615019
S113578070400110D8F7809590958E0F9F1F089553
S113579048EA51E00C94E72BFB01DC018D91019068
S11357A080190110D9F3990B0895FB01DC010190D4
S11357B00D920020E1F70895FC01615070400190C2
S11357C00110D8F7809590958E0F9F1F0895FA01C8
S11357D0A191B081009719F41097E1F0CD01DC019B
S11357E0CD010D90002011F4C00113C0FB012191E3
S11357F0222319F02015D9F7F3CFFB0121912015AD
S113580019F41E92119606C02223C1F70D900020B0
S1135810A1F7D001FA01A193B08308950F931F93C8
S1135820CF93DF93FB01238121FD03C08FEF9FEF13
S11358302CC022FF16C0468157812481358142172E
S1135840530744F4A081B1819D012F5F3F4F318301
S113585020838C93268137812F5F3F4F37832683A4
S113586014C08B01EC01FB010084F185E02D099546
S1135870892BE1F6D80116968D919C911797019684
S113588017969C938E931697CE01DF91CF911F911B
S11358900F9108950F931F93CF93DF93CDB7DEB786
S11358A02E970FB6F894DEBF0FBECDBF0D891E89AB
S11358B086E08C831A8309838FEF9FE79E838D8311
S11358C0AE01475E5F4F6F89788DCE0101960E94CD
S11358D00B26EF81F885E00FF11F10822E960FB68C
S11358E0F894DEBF0FBECDBFDF91CF911F910F9112
S11358F00895CF93DF93CDB7DEB72E970FB6F89404
S1135900DEBF0FBECDBF85E08C838B899C899A83D3
S11359108983AE01495E5F4F6D897E89CE01019610
S11359200E940A2F2E960FB6F894DEBF0FBECDBF8D
S1135930DF91CF9108950F931F93CF93DF93CDB74A
S1135940DEB72E970FB6F894DEBF0FBECDBF8C0125
S113595086E08C831A8309838FEF9FE79E838D8370
S1135960CE0101960E940B26EF81F885E00FF11F0E
S113597010822E960FB6F894DEBF0FBECDBFDF9116
S1135980CF911F910F9108950F931F93CF93DF939E
S1135990CDB7DEB72E970FB6F894DEBF0FBECDBFDE
S11359A08C018EE08C831A8309838FEF9FE79E839B
S11359B08D83CE0101960E940B26EF81F885E00FBE
S11359C0F11F10822E960FB6F894DEBF0FBECDBF26
S11359D0DF91CF911F910F910895FA01AA272830E2
S11359E051F1203181F1E8946F936E7F6E5F7F4FA8
S11359F08F4F9F4FAF4FB1E03ED0B4E03CD0670F24
S1135A00781F891F9A1FA11D680F791F8A1F911D76
S1135A10A11D6A0F711D811D911DA11D20D009F4C6
S1135A2068943F912AE0269F11243019305D319308
S1135A30DEF6CF010895462F4770405D4193B3E0F1
S1135A400FD0C9F7F6CF462F4F70405D4A3318F098
S1135A50495D31FD4052419302D0A9F7EACFB4E049
S1135A60A6959795879577956795BA95C9F7009701
S1135A706105710508959B01AC010A2E06945795A2
S1135A80479537952795BA95C9F7620F731F841FF9
S1135A90951FA01D089520FD09C0FC0123FD05C02C
S1135AA022FF02C07383628351834083089544FDBF
S1135AB017C046FD17C0AB01BC01DA01FB01AA0FF8
S1135AC0BB1FEE1FFF1F1094D1F74A0F5B1F6E1F01
S1135AD07F1FCB01BA01660F771F881F991F09C06A
S1135AE033E001C034E0660F771F881F991F3150DF
S1135AF0D1F7620F711D811D911D08950F931F939E
S1135B00CF93DF938C01C8010E944330EC0197FDD1
S1135B1008C00E942F30892BB1F7B801CE010E9432
S1135B208130CE01DF91CF911F910F9108958F9213
S1135B309F92AF92BF92EF92FF920F931F93CF93D6
S1135B40DF938C01D62F7A01B22E0E9443309C0140
S1135B5033272B32310531F02D32310561F48B2D91
S1135B608068B82ED15011F480E068C0C8010E944A
S1135B70433097FDF9CFCB2DCD7F2B2D207309F525
S1135B808033F9F4AA24AA94AD0E09F443C0C801E1
S1135B900E94433097FD3EC09C012F7D332728355A
S1135BA0310549F4C264D250A9F1C8010E944330BE
S1135BB097FF07C02FC0B6FE02C0C26001C0C26119
S1135BC0DA2D812C912C540120ED280F283080F0FF
S1135BD0C4FF04C0B8010E94813019C02A3040F0CB
S1135BE0C6FFF8CF2F7D3FEE320F363098F727509F
S1135BF04C2FC501B4010E94572D4B015C01C260BA
S1135C00D15059F0C8010E94433097FFDDCFC1FD48
S1135C1004C0AACF812C912C5401C7FF08C0B094B2
S1135C20A09490948094811C911CA11CB11C2C2FD5
S1135C30B501A401C7010E944B2D81E0DF91CF91F2
S1135C401F910F91FF90EF90BF90AF909F908F9016
S1135C5008955F926F927F928F929F92AF92BF92BC
S1135C60CF92DF92EF92FF920F931F93CF93DF9324
S1135C70CDB7DEB7A0970FB6F894DEBF0FBECDBF89
S1135C805C01962E7A01F9018E010F5F1F4F6801A6
S1135C9080E2D8011D928A95E9F7D50113968C907C
S1135CA080E090E0612C712C30E061E070E083FCD6
S1135CB0259183FE21918F01522E211103C080E092
S1135CC090E092C02E3511F4009751F1432F50E02B
S1135CD0481759073CF42D3559F12D3219F4772022
S1135CE009F103C0772009F46AC0452D469546950D
